{
  "contractName": "HealthcareRecords",
  "abi": [
    {
      "inputs": [],
      "stateMutability": "nonpayable",
      "type": "constructor"
    },
    {
      "inputs": [],
      "name": "getOwner",
      "outputs": [
        {
          "internalType": "address",
          "name": "",
          "type": "address"
        }
      ],
      "stateMutability": "view",
      "type": "function"
    },
    {
      "inputs": [
        {
          "internalType": "address",
          "name": "provider",
          "type": "address"
        }
      ],
      "name": "authorizeProvider",
      "outputs": [],
      "stateMutability": "nonpayable",
      "type": "function"
    },
    {
      "inputs": [
        {
          "internalType": "uint256",
          "name": "patientID",
          "type": "uint256"
        },
        {
          "internalType": "string",
          "name": "patientName",
          "type": "string"
        },
        {
          "internalType": "string",
          "name": "diagnosis",
          "type": "string"
        },
        {
          "internalType": "string",
          "name": "treatment",
          "type": "string"
        }
      ],
      "name": "addRecord",
      "outputs": [],
      "stateMutability": "nonpayable",
      "type": "function"
    },
    {
      "inputs": [
        {
          "internalType": "uint256",
          "name": "patientID",
          "type": "uint256"
        }
      ],
      "name": "getPatientRecords",
      "outputs": [
        {
          "components": [
            {
              "internalType": "uint256",
              "name": "recordID",
              "type": "uint256"
            },
            {
              "internalType": "string",
              "name": "patientName",
              "type": "string"
            },
            {
              "internalType": "string",
              "name": "diagnosis",
              "type": "string"
            },
            {
              "internalType": "string",
              "name": "treatment",
              "type": "string"
            },
            {
              "internalType": "uint256",
              "name": "timestamp",
              "type": "uint256"
            }
          ],
          "internalType": "struct HealthcareRecords.Record[]",
          "name": "",
          "type": "tuple[]"
        }
      ],
      "stateMutability": "view",
      "type": "function"
    },
    {
      "inputs": [
        {
          "internalType": "address",
          "name": "provider",
          "type": "address"
        }
      ],
      "name": "isAuthorizedProvider",
      "outputs": [
        {
          "internalType": "bool",
          "name": "",
          "type": "bool"
        }
      ],
      "stateMutability": "view",
      "type": "function"
    }
  ],
  "bytecode": "0x6080604052348015600e575f80fd5b50335f806101000a81548173ffffffffffffffffffffffffffffffffffffffff021916908373ffffffffffffffffffffffffffffffffffffffff1602179055506110e48061005b5f395ff3fe608060405234801561000f575f80fd5b5060043610610055575f3560e01c8063112ea262146100595780631a08a3481461007557806322770d8e14610091578063893d20e8146100c1578063dce7e843146100df575b5f80fd5b610073600480360381019061006e919061074e565b61010f565b005b61008f600480360381019061008a91906108e8565b6101f4565b005b6100ab60048036038101906100a6919061074e565b61035b565b6040516100b891906109ba565b60405180910390f35b6100c96103ad565b6040516100d691906109e2565b60405180910390f35b6100f960048036038101906100f491906109fb565b6103d4565b6040516101069190610bd1565b60405180910390f35b5f8054906101000a900473ffffffffffffffffffffffffffffffffffffffff1673ffffffffffffffffffffffffffffffffffffffff163373ffffffffffffffffffffffffffffffffffffffff161461019c576040517f08c379a000000000000000000000000000000000000000000000000000000000815260040161019390610c71565b60405180910390fd5b600160025f8373ffffffffffffffffffffffffffffffffffffffff1673ffffffffffffffffffffffffffffffffffffffff1681526020019081526020015f205f6101000a81548160ff02191690831515021790555050565b60025f3373ffffffffffffffffffffffffffffffffffffffff1673ffffffffffffffffffffffffffffffffffffffff1681526020019081526020015f205f9054906101000a900460ff1661027d576040517f08c379a000000000000000000000000000000000000000000000000000000000815260040161027490610cd9565b60405180910390fd5b5f6001805f8781526020019081526020015f208054905061029e9190610d24565b905060015f8681526020019081526020015f206040518060a0016040528083815260200186815260200185815260200184815260200142815250908060018154018082558091505060019003905f5260205f2090600502015f909190919091505f820151815f0155602082015181600101908161031b9190610f51565b5060408201518160020190816103319190610f51565b5060608201518160030190816103479190610f51565b506080820151816004015550505050505050565b5f60025f8373ffffffffffffffffffffffffffffffffffffffff1673ffffffffffffffffffffffffffffffffffffffff1681526020019081526020015f205f9054906101000a900460ff169050919050565b5f805f9054906101000a900473ffffffffffffffffffffffffffffffffffffffff16905090565b606060025f3373ffffffffffffffffffffffffffffffffffffffff1673ffffffffffffffffffffffffffffffffffffffff1681526020019081526020015f205f9054906101000a900460ff1661045f576040517f08c379a000000000000000000000000000000000000000000000000000000000815260040161045690610cd9565b60405180910390fd5b5f60015f8481526020019081526020015f2080549050116104b5576040517f08c379a00000000000000000000000000000000000000000000000000000000081526004016104ac90611090565b60405180910390fd5b60015f8381526020019081526020015f20805480602002602001604051908101604052809291908181526020015f905b828210156106d8578382905f5260205f2090600502016040518060a00160405290815f820154815260200160018201805461051f90610d84565b80601f016020809104026020016040519081016040528092919081815260200182805461054b90610d84565b80156105965780601f1061056d57610100808354040283529160200191610596565b820191905f5260205f20905b81548152906001019060200180831161057957829003601f168201915b505050505081526020016002820180546105af90610d84565b80601f01602080910402602001604051908101604052809291908181526020018280546105db90610d84565b80156106265780601f106105fd57610100808354040283529160200191610626565b820191905f5260205f20905b81548152906001019060200180831161060957829003601f168201915b5050505050815260200160038201805461063f90610d84565b80601f016020809104026020016040519081016040528092919081815260200182805461066b90610d84565b80156106b65780601f1061068d576101008083540402835291602001916106b6565b820191905f5260205f20905b81548152906001019060200180831161069957829003601f168201915b50505050508152602001600482015481525050815260200190600101906104e5565b505050509050919050565b5f604051905090565b5f80fd5b5f80fd5b5f73ffffffffffffffffffffffffffffffffffffffff82169050919050565b5f61071d826106f4565b9050919050565b61072d81610713565b8114610737575f80fd5b50565b5f8135905061074881610724565b92915050565b5f60208284031215610763576107626106ec565b5b5f6107708482850161073a565b91505092915050565b5f819050919050565b61078b81610779565b8114610795575f80fd5b50565b5f813590506107a681610782565b92915050565b5f80fd5b5f80fd5b5f601f19601f8301169050919050565b7f4e487b71000000000000000000000000000000000000000000000000000000005f52604160045260245ffd5b6107fa826107b4565b810181811067ffffffffffffffff82111715610819576108186107c4565b5b80604052505050565b5f61082b6106e3565b905061083782826107f1565b919050565b5f67ffffffffffffffff821115610856576108556107c4565b5b61085f826107b4565b9050602081019050919050565b828183375f83830152505050565b5f61088c6108878461083c565b610822565b9050828152602081018484840111156108a8576108a76107b0565b5b6108b384828561086c565b509392505050565b5f82601f8301126108cf576108ce6107ac565b5b81356108df84826020860161087a565b91505092915050565b5f805f8060808587031215610900576108ff6106ec565b5b5f61090d87828801610798565b945050602085013567ffffffffffffffff81111561092e5761092d6106f0565b5b61093a878288016108bb565b935050604085013567ffffffffffffffff81111561095b5761095a6106f0565b5b610967878288016108bb565b925050606085013567ffffffffffffffff811115610988576109876106f0565b5b610994878288016108bb565b91505092959194509250565b5f8115159050919050565b6109b4816109a0565b82525050565b5f6020820190506109cd5f8301846109ab565b92915050565b6109dc81610713565b82525050565b5f6020820190506109f55f8301846109d3565b92915050565b5f60208284031215610a1057610a0f6106ec565b5b5f610a1d84828501610798565b91505092915050565b5f81519050919050565b5f82825260208201905092915050565b5f819050602082019050919050565b610a5881610779565b82525050565b5f81519050919050565b5f82825260208201905092915050565b8281835e5f83830152505050565b5f610a9082610a5e565b610a9a8185610a68565b9350610aaa818560208601610a78565b610ab3816107b4565b840191505092915050565b5f60a083015f830151610ad35f860182610a4f565b5060208301518482036020860152610aeb8282610a86565b91505060408301518482036040860152610b058282610a86565b91505060608301518482036060860152610b1f8282610a86565b9150506080830151610b346080860182610a4f565b508091505092915050565b5f610b4a8383610abe565b905092915050565b5f602082019050919050565b5f610b6882610a26565b610b728185610a30565b935083602082028501610b8485610a40565b805f5b85811015610bbf5784840389528151610ba08582610b3f565b9450610bab83610b52565b925060208a01995050600181019050610b87565b50829750879550505050505092915050565b5f6020820190508181035f830152610be98184610b5e565b905092915050565b5f82825260208201905092915050565b7f4f6e6c79206f776e65722063616e20706572666f726d20746869732066756e635f8201527f74696f6e00000000000000000000000000000000000000000000000000000000602082015250565b5f610c5b602483610bf1565b9150610c6682610c01565b604082019050919050565b5f6020820190508181035f830152610c8881610c4f565b9050919050565b7f4e6f7420616e20617574686f72697a65642070726f76696465720000000000005f82015250565b5f610cc3601a83610bf1565b9150610cce82610c8f565b602082019050919050565b5f6020820190508181035f830152610cf081610cb7565b9050919050565b7f4e487b71000000000000000000000000000000000000000000000000000000005f52601160045260245ffd5b5f610d2e82610779565b9150610d3983610779565b9250828201905080821115610d5157610d50610cf7565b5b92915050565b7f4e487b71000000000000000000000000000000000000000000000000000000005f52602260045260245ffd5b5f6002820490506001821680610d9b57607f821691505b602082108103610dae57610dad610d57565b5b50919050565b5f819050815f5260205f209050919050565b5f6020601f8301049050919050565b5f82821b905092915050565b5f60088302610e107fffffffffffffffffffffffffffffffffffffffffffffffffffffffffffffffff82610dd5565b610e1a8683610dd5565b95508019841693508086168417925050509392505050565b5f819050919050565b5f610e55610e50610e4b84610779565b610e32565b610779565b9050919050565b5f819050919050565b610e6e83610e3b565b610e82610e7a82610e5c565b848454610de1565b825550505050565b5f90565b610e96610e8a565b610ea1818484610e65565b505050565b5b81811015610ec457610eb95f82610e8e565b600181019050610ea7565b5050565b601f821115610f0957610eda81610db4565b610ee384610dc6565b81016020851015610ef2578190505b610f06610efe85610dc6565b830182610ea6565b50505b505050565b5f82821c905092915050565b5f610f295f1984600802610f0e565b1980831691505092915050565b5f610f418383610f1a565b9150826002028217905092915050565b610f5a82610a5e565b67ffffffffffffffff811115610f7357610f726107c4565b5b610f7d8254610d84565b610f88828285610ec8565b5f60209050601f831160018114610fb9575f8415610fa7578287015190505b610fb18582610f36565b865550611018565b601f198416610fc786610db4565b5f5b82811015610fee57848901518255600182019150602085019450602081019050610fc9565b8683101561100b5784890151611007601f891682610f1a565b8355505b6001600288020188555050505b505050505050565b7f4e6f207265636f72647320666f756e6420666f7220746869732070617469656e5f8201527f7420494400000000000000000000000000000000000000000000000000000000602082015250565b5f61107a602483610bf1565b915061108582611020565b604082019050919050565b5f6020820190508181035f8301526110a78161106e565b905091905056fea264697066735822122087f1c572f3796819550ae07f85fd01421bc4aaa9d0ec75998138c50ba9bb3a5c64736f6c634300081a0033",
  "immutableReferences": {},
  "source": "// SPDX-License-Identifier: MIT\npragma solidity ^0.8.26;\n\ncontract HealthcareRecords {\n    address owner;\n\n    struct Record {\n        uint256 recordID;\n        string patientName;\n        string diagnosis;\n        string treatment;\n        uint256 timestamp;\n    }\n\n    mapping(uint256 => Record[]) private patientRecords;   //store the patient records \n\n    mapping(address => bool) private authorizedProviders;\n\n    modifier onlyOwner () {  //only owner can perform this function\n        require(msg.sender == owner, \"Only owner can perform this function\");\n        _;\n    }\n\n    modifier onlyAuthorizedProvider() {\n        require(authorizedProviders[msg.sender], \"Not an authorized provider\");\n        _;\n    }\n\n    constructor() {\n        owner = msg.sender;\n    }\n\n    function getOwner() public view returns (address) {\n        return owner; \n    }\n\n    function authorizeProvider(address provider) public onlyOwner {\n        authorizedProviders[provider] = true;\n\n    }\n\n    function addRecord(uint256 patientID, string memory patientName, string memory diagnosis, string memory treatment) public onlyAuthorizedProvider {\n        uint256 recordID = patientRecords[patientID].length + 1;\n        patientRecords[patientID].push(Record(recordID, patientName, diagnosis, treatment, block.timestamp)); \n    }\n\n    function getPatientRecords(uint256 patientID) public view onlyAuthorizedProvider returns (Record[] memory) {\n    require(patientRecords[patientID].length > 0, \"No records found for this patient ID\");\n    return patientRecords[patientID];\n    }\n\n\n    function isAuthorizedProvider(address provider) public view returns (bool) {\n        return authorizedProviders[provider];\n    }\n\n}\n\n",
  "sourcePath": "/home/ctse/SIDE_App/contracts/HealthcareRecords.sol",
  "compiler": {
    "name": "solc",
    "version": "0.8.26+commit.8a97fa7a.Emscripten.clang"
  },
  "schemaVersion": "3.4.16",
  "updatedAt": "2024-12-20T06:48:57.587Z",
  "devdoc": {
    "kind": "dev",
    "methods": {},
    "version": 1
  },
  "userdoc": {
    "kind": "user",
    "methods": {},
    "version": 1
  }
}